:1000000096EF0EF0F76A180FF66E000EF722000E4C
:10001000F86E0900F5501200000000000000005FBB
:1000200000000003000300143E143E14242A7F2A1B
:10003000124333086661364955225000050300001B
:10004000001C2241000041221C0014083E08140834
:10005000083E080800503000000808080808006042
:1000600060000020100804023E5149453E00040291
:100070007F00426151494622414949361814127F96
:100080001027454545393E49494932010171090763
:100090003649494936264949493E0036360000006E
:1000A00056360000081422410014141414140041A0
:1000B00022140802015109063E4159555E7E090984
:1000C000097E7F494949363E414141227F414141B4
:1000D0003E7F494949417F090909013E4141493A69
:1000E0007F0808087F00417F4100304040403F7F4B
:1000F000081422417F404040407F020C027F7F0273
:1001000004087F3E4141413E7F090909061E212125
:10011000215E7F0909097600F76A2C0FF66E010E41
:10012000F722000EF86E0900F550120026494949E1
:100130003201017F01013F4040403F1F2040201F0E
:100140007F2010207F41221C224107087008076190
:1001500051494543007F410000020408102000007F
:10016000417F00040201020440404040400001027F
:10017000040020545454787F444444383844444460
:1001800044384444447F385454541804047E0505CC
:10019000085454543C7F0804047800447D400020F7
:1001A00040443D007F1028440000417F40007C0413
:1001B0007804787C0804047838444444387C141467
:1001C0001408081414147C007C0804044854545483
:1001D0002004043F44443C4040207C1C2040201C20
:1001E0003C4030403C44281028440C5050503C4483
:1001F00064544C44000836414100007F00004141F6
:1002000036080002010204021A0FF66E020EF722EF
:10021000000EF86E0900F5501200FFFFFFFFFFFF10
:10022000FFFFFFFFFFFFFFFFFFFFFFFFFFFFFFFFDE
:10023000FFFFFFFFFFFFFFFFFFFFFFFFFFFFFFFFCE
:10024000FFFFFFFFFFFFFFFFFFFFE00000000000D8
:1002500000000000000000000007E00000000000B7
:1002600000000000000000000007E00000000000A7
:1002700000000000000000000007E0000000000097
:1002800000000000000000000007E0000000000087
:1002900000000000000000000007E0000000000077
:1002A00000000000000000000007E0000000000067
:1002B00000000000007FFFFFFFFFE00000000000E3
:1002C0000000000000800000000FE00000000000BF
:1002D00000000000011F8F000017E0000000000078
:1002E0000000000002001F3FFE27E00000000000A9
:1002F0000000000005FFDE400047E00400000000B1
:10030000000000000B7FC087F087E006000E673F0B
:100310007D831C0017FFE1080107E00700196C8CC2
:1003200061C71C002FFF3E100207E00780186C0C0D
:1003300061C736005FFF80218407E007801E6F0CD5
:100340007DEF3600BFFCFFC20807E007C00F678CD7
:1003500061AB36017FFE00041007E00FE003618C03
:1003600061BB7F02FFF3FFF82007E00FE013698C09
:1003700061936305FFF800004007E00FF00E670C83
:100380007D936309FFCFFFF88007E01FF8000000AE
:1003900000000010000000010007E01FF80000004E
:1003A0000000003FFFFFFFFE0007E03FFC000000F1
:1003B00000000000000000000007E07FFC000000DB
:1003C00000000000000000000007E0FFFE00000049
:1003D00000000000000000000007E0FFFE00000039
:1003E00000000000000000000007E1FFFF00000027
:1003F00000000000000000000007E1FFFF01B1B1B4
:10040000BEF98C71F3EF8F800007E1FFFF01B9B1F6
:10041000B0CDCC719B0CD8C00007E1FFFF01B9B192
:10042000B0CDCCD99B0CD8C00007E1FFFF01B5913E
:100430003EF9ACD99BEF98C00007E0EFFE01B599FB
:1004400030D9ACD99B0D98C00007E0E7FE01B38A14
:1004500030CD9DFD9B0CD8C00007E07FFC01B3862A
:1004600030CD9D8D9B0CD8C00007E03FF801B184D2
:100470003ECD8D8DF3ECCF800007E01FF000000033
:1004800000000000000000000007E007C0000000BE
:1004900000000000000000000007E0000000000075
:1004A00000000000000000000007E0000000000065
:1004B00000000000000000000007E0000000000055
:1004C00000000000000000000007E000000800003D
:1004D00000000000000000000007E000000C000029
:1004E0000000000000E030000007E000000600000F
:1004F0000007FF00007063000007E0000007000035
:1005000000FFFFF00038C7000007E000000300E034
:10051000037FFFEC001DCE000007E000000383C056
:100520000E3FFFE3801D8C000007E0000001C78044
:10053000300FFF80C00F9C000007E000E001CF00FB
:10054000600DF184200FB8000007E00071C1EF01D9
:1005500080000000B807F8006037E0003B81FE0330
:10056000300000023C07F8003877E0003F01FE074A
:10057000E0B800067E07F8001C67F9861E01FC063D
:100580008C3E0069FE07F0387EC7FDCE1E48FC0F8A
:10059000EB7F0067FF03F01CCFC7ECFC1E78F81F51
:1005A000D37F010FFF83F0078787EC781E78F81F51
:1005B000FCFF03BFFF83F1E307C7FFFFFFFFF83F27
:1005C000F63E03BFFFC3FFFFFFFFFFFFFFFFF83F44
:1005D000FF3C07BFFFC3FFFFFFFFFFFFFFFFF87FE9
:1005E000BBF80FB73FE3FFFFFFFFFFFFFFFFFFFF7A
:1005F000FFFFFFFFFFFFFFFFFFFFFFFFFFFFFFFF0B
:10060000FFFFFFFFFFFFFFFFFFFFFFFFFFFFFFFFFA
:10061000FFFFFFFFFFFFFFFFFFFF2C0FF66E060E31
:10062000F722000EF86E0900F550120000000000DD
:1006300000000000000000000000000000000000BA
:1006400000000000000000000000000000000000AA
:10065000000000000000000000000000000000009A
:10066000000000000000000000000000000000008A
:10067000000000000000000000000000000000007A
:10068000000000000000000000000000000000006A
:10069000000000000000000000000000000000005A
:1006A000000000000000000000000000000000004A
:1006B000000000000000000000000000000000003A
:1006C000000000000000000000000000000000002A
:1006D000000000000000000000000000000000001A
:1006E000000000000000000000000000000000000A
:1006F00000000000000000000000000000000000FA
:1007000000000000000000000000000000000000E9
:100710000000000000000000000000000001FF00D9
:10072000000000000000000000000000000FFFE0DB
:10073000000000000000000000000000003FFFF883
:1007400000000000000000000000000000FF01FEAB
:1007500000000000000000000000000001F8001F81
:1007600000000000000000000000000003E000079F
:10077000800000000000000000000000078000036F
:10078000C000000000000000000000000F00000199
:10079000E000000000000000000000001E0000005B
:1007A000F000000000000000000000001C00000736
:1007B0007000000000000000000000003C00001E6F
:1007C0003800000000000000000000003800007841
:1007D000380000000000000000000000380001F0B8
:1007E0003C0000000000000000000000700007C096
:1007F0001C000000000000000000000070001F80CE
:100800001C000000000000000000000070603F00BD
:100810001C000000000000000000000070787E0056
:100820001C0000000000000000000000703CFC0004
:100830001C0000000000000000000000701FF80015
:100840001C0000000000000000000000380FF00055
:100850003C00000000000000000000003807F0002D
:100860003800000000000000000000003807E00031
:100870003800000000000000000000001C03C00061
:100880007000000000000000000000001E01800059
:10089000F000000000000000000000000F00000158
:1008A000E0000000000000000000000007800003DE
:1008B000C0000000000000000000000003C00007AE
:1008C00080000000000000000000000001F0001F98
:1008D00000000000000000000000000000FE00FE1C
:1008E000000000000000000000000000003FFFF8D2
:1008F000000000000000000000000000000FFFE00A
:100900000000000000000000000000000001FF00E7
:1009100000000000000000000000000000000000D7
:1009200000000000000000000000000000000000C7
:1009300000000000000000000000000000000000B7
:1009400000000000000000000000000000000000A7
:100950000000000000000000000000000000000097
:100960000000000000000000000000000000000087
:100970000000000000000000000000000000000077
:100980000000000000000000000000000000000067
:100990000000000000000000000000000000000057
:1009A0000000000000000000000000000000000047
:1009B0000000000000000000000000000000000037
:1009C0000000000000000000000000000000000027
:1009D0000000000000000000000000000000000017
:1009E0000000000000000000000000000000000007
:1009F00000000000000000000000000000000000F7
:100A000000000000000000000000000000000000E6
:100A100000000000000000000000000000000000D6
:100A200000000000000000000000000002019D53D3
:100A300003E0939A8A8A02D093988A88939E8A9E2A
:100A4000956A9EC28CFF0000949A8B8A00D000D0D9
:100A50000000949A8B9A93988A98939A8A9A0001A4
:100A6000000C02017D6B7D51070840E3939C8A9C3A
:100A70009D6B400E9E6F0001D9DF010E02019D6F3C
:100A8000400E9E6F0001D2DF02017D51B8097F6FD9
:100A90009D6B9E6F0001CADF02017D51B8097F6F17
:100AA000010E9D6F7FC29EF20001C0DF939C8A8C75
:100AB00002017E6B7E513F0817E37C51FF0DF3CF9F
:100AC0007FF29D6B7FC29EF20001B0DF02017C517C
:100AD000FF0DF3CF7FF2010E9D6F7FC29EF20001EA
:100AE000A5DF02017E2BE6D77D2BBDD70001000CD0
:100AF00094908B80949A8B9A93988A98939A8A9AD6
:100B0000939C8A9C02019D6BC00E9E6F00018EDF3C
:100B1000010E02019D6FC00E9E6F000187DF020172
:100B20009D6B400E9E6F000181DF010E02019D6FE3
:100B3000400E9E6F00017ADF02019D6BB80E9E6F22
:100B4000000174DF010E02019D6FB80E9E6F00015F
:100B50006DDF02017B2D0ED09D6B3F0E9E6F00015D
:100B600065DF010E02019D6F3F0E9E6F00015EDF8B
:100B70000DD002019D6B3E0E9E6F000157DF010EEE
:100B800002019D6F3E0E9E6F000150DF02017C6BE3
:100B9000000167DF5DEF12F002017E518003F3CFA9
:100BA00001F0F4CF00F08103F35000267F51800361
:100BB000F3500020026E0001000CFF0E956E939E14
:100BC0008A8E02019C5303E0939A8A8A02D09398FA
:100BD0008A880000949A8B8A00D000D0FF0E956E10
:100BE00083CF9DF2949A8B9A93988A98939A8A9A33
:100BF0009DC201F00001000C02019A9196513F083C
:100C000003E2400E965F9A81939C8A9C969F968DF4
:100C1000000E9AB1010E9D6F96C29EF2000106DF92
:100C2000000E02019AB1010E9B6F9731006E0032E7
:100C300000321F0E00160050BF0BB8099C6F9BC2FC
:100C40009DF29E6F0001F2DE939C8A8C000E0201E1
:100C50009AB1010E9C6F0001B0DF000E02019AB143
:100C6000010E9C6F0001A9DF01C099F20201982DCD
:100C70000FD09751070B9B6F010E006E9B51016EB9
:100C800004E0D8900036012EFCD7005099130FD005
:100C90009751070B9B6F010E006E9B51016E04E094
:100CA000D8900036012EFCD70050FF0A9917939C6C
:100CB0008A9C000E9AB1010E9D6F96C29EF20001B1
:100CC000B5DE939C8A8C000E02019AB1010E9D6FD5
:100CD00099C29EF20001AADE000C02017B6B7B51DF
:100CE0003F084CE37C6B7C510F0846E3070E7D6F99
:100CF0007D51800A7F083EE27F6B7BC27EF2816B72
:100D0000100E806F000148DF02C07FF201C07EF24A
:100D100002017C510124016E000E0220036E01507D
:100D2000F2CF7EF2F29E03C0F7FF000104EC01F067
:100D300002017EBFF28E7E6F070ED8807D557F6FD9
:100D40007EC200F07F51016E04E0D8900032012E87
:100D5000FCD700A00DD07C51080DF3507D257E6F8F
:100D6000966F7BC297F2010E986F000145DF02017A
:100D70007D07BED77C2BB7D77B2BB1D7000164EFA3
:100D800012F0020EEA6E840EE96EEF500DE0020ED4
:100D9000016E006A002EFED7012EFBD7970E006E63
:100DA000002EFED7EF2EF3D7000C010E02018F6F3D
:100DB000906F956B8651885D966F965196AF03D074
:100DC000000ED8809655036A8D6F03C08EF287514E
:100DD000895D966F965196AF03D0000ED8809655D8
:100DE000036A8B6F03C08CF28651885D02E2FF0EAE
:100DF0008F6F8751895D02E2FF0E906F8C518E5D7F
:100E00003BE303E18B518D5D37E3D8908B378C3713
:100E10008D518B5D006E8E518C5900C091F2926F96
:100E20008D51915D936F8E519259946F8E5303E162
:100E300095518D5D20E386C296F287C297F28AC2F1
:100E400098F20001D9DE020192BF01D008D08B5187
:100E500091278C5192238F518625866F0AD093510A
:100E60009127945192238F518625866F9051872523
:100E7000876F952BDBD736D0D8908D378E378B5137
:100E80008D5D006E8C518E5900C091F2926F8B5126
:100E9000915D936F8C519259946F8C5303E19551EE
:100EA0008B5D20E386C296F287C297F28AC298F2DF
:100EB0000001A2DE020192BF01D008D08D5191271E
:100EC0008E51922390518725876F0AD09351912795
:100ED000945192238F518625866F90518725876F75
:100EE000952BDBD70001000C02017F532EE07D51D2
:100EF0007B5D05E27BC282F27DC283F204D07DC2BB
:100F000082F27BC283F27E517C5D05E27CC284F278
:100F10007EC285F204D07EC284F27CC285F2825108
:100F2000835D12E384C281F28151855D0BE382C24D
:100F300096F281C297F280C298F200015DDE020152
:100F4000812BF2D7822BEBD72ED07BC286F27CC2CC
:100F500087F27DC288F27CC289F280C28AF20001E7
:100F600024DF7BC286F27EC287F27DC288F27EC217
:100F700089F280C28AF219DF7BC286F27CC287F2D4
:100F80007BC288F27EC289F280C28AF20EDF7DC205
:100F900086F27CC287F27DC288F27EC289F280C26C
:100FA0008AF203DF02010001000C7EC203F002019D
:100FB0007DC2E9FF7EC2EAFFEF52D8B4D0D07EC234
:100FC00003F07DC2E9FF7EC2EAFFEF50520827E33B
:100FD0007EC203F07DC2E9FF7EC2EAFF200EEF5C15
:100FE000050DF350036A8A6F020EEA6E850EE96EF4
:100FF0008E6B8AC28DF2F2CF8BF2F29E050E016EDD
:10100000F76A8A51000102EC00F00A000900F5CFEE
:10101000EEFF012EFBD702018BBFF28E35D07EC2D0
:1010200003F07DC2E9FF7EC2EAFFEF507E0827E3AE
:101030007EC203F07DC2E9FF7EC2EAFF530EEF5C81
:10104000050DF350036A8A6F020EEA6E850EE96E93
:101050008E6B8AC28DF2F2CF8BF2F29E050E016E7C
:10106000F76A8A5100018CEC00F00A000900F5CF04
:10107000EEFF012EFBD702018BBFF28E05D0856BF0
:10108000866B876B886B896B7EC203F07D51E96E3E
:1010900003C0EAFFEF500A0A000103E0070A09E073
:1010A0000BD002017F51070DF350010F7C2750D068
:1010B000000102017B6B4CD002017F51050DF35002
:1010C0007B257F0806E27B6B7F51070DF350010FF4
:1010D0007C27816B815104083BE3826B82510608B7
:1010E00033E3036A8151850FE96E020E0320EA6E35
:1010F000EFCF8AF28AC200F08251016E04E0D890EC
:101100000032012EFCD700A01DD0836B7F51835D80
:1011100019E2846B7F51845D13E284517B258A6FD1
:1011200082517F03F3507C2583258B6F8AC296F210
:10113000976F80C298F200015FDD0201842BEAD72D
:10114000832BE4D7822BCAD7812B7F517B27C2D731
:101150007D2BD8B47E2B7B2B000127D70201000109
:10116000000C080E016E00D08B96949600D0000003
:10117000020184378B98D8B09488D8A0949894862C
:1011800082A6FED7012E01D002D00001ECD700D0FC
:101190008B9694960000948800D0000000D0000048
:1011A000948682A6FED7016A00D0000082B8018032
:1011B0008B9694968B9894980001000C080E02016F
:1011C000806F00C081F2948800D00000948682A6CF
:1011D000FED782B8D88082A8D890013600D09496E5
:1011E0008B96802FF0D7948800D000008B98815187
:1011F000D8A494980000948682A6FED700D08B963F
:10120000949600D000008B9894980001000C80C246
:1012100081F2D89002018133780E81178131006EFE
:1012200000323F0E001600508125826F80510F0B57
:101230008225016E0001000C948800D0948600D0B5
:1012400000008B98949800D08B969496D00E020153
:10125000846F000186DF0201846B000182DF9488C5
:1012600000D0948600D0000082A6FED78B98949878
:1012700000D08B969496D10E0201846F000171DF2D
:10128000010E006E9BDF01507F0B02017B6F806FB0
:101290000001BDDF01C00CF0010E006E8FDF0150B8
:1012A0007F0B02017B6F806F0001B1DF01C00BF08B
:1012B000006A84DF01C00AF094980000948682A638
:1012C000FED700D000D00000948800D026900ABA43
:1012D00026800A501F0B02017B6F806F000197DF91
:1012E00001C00AF0948800D0948600D000008B984A
:1012F000949800D08B969496D00E0201846F0001D2
:1013000030DF030E0201846F00012BDF948800D0D0
:10131000948600D0000082A6FED78B98949800D0C7
:101320008B969496D10E0201846F00011ADF010E94
:10133000006E44DF01507F0B02017B6F806F000164
:1013400066DF01C010F0010E006E38DF01503F0B68
:1013500002017B6F806F00015ADF01C00EF0010EA9
:10136000006E2CDF01501F0B02017B6F806F0001AC
:101370004EDF01C00FF0006A21DF01C07BF201C027
:1013800080F245DF01C011F094980000948682A697
:10139000FED700D000D00000948800D026A003D053
:1013A000500E2B6E02D0410E2B6E420E006E002EA0
:1013B000FED70000000C02018251016A815D03E248
:1013C00081C200F00CD0006A080E836F81370036AE
:1013D0008251005CD8B0006E0136832FF7D7000130
:1013E000000C78C2EAFF77C2E9FF020188C2EFFF72
:1013F000E92AD8B4EA2AEF6A772BD8B4782B00010F
:10140000000C200E02017CA9300E7D6F7BC200F023
:101410007BAF07D0001E002A00C07BF22D0E7D6F2F
:101420007C8F01507BC281F2640E826F0001C3DFAA
:1014300000C07BF2300E012402017E6F7BC281F27C
:101440000A0E826F0001B7DF300E00240201806FA8
:10145000300E01247F6F7DC200F07CA702D07CAFEC
:101460007C957CB90BD07CAF22D07CB520D000C05D
:101470007EF27CB31CD000C07FF219D0300E7E5DAE
:1014800016E100C07EF2200E7D6F7CA704D07C9513
:101490007C837CAF7C93300E7F5D09E100C07FF2DE
:1014A000200E7E6F7CA7F7D77C937CAF7C917CA5C8
:1014B00005D07DC288F2000194DF02017CA305D033
:1014C0007EC288F200018DDF02017CA104D07FC2C0
:1014D00088F2000186DF80C288F2000182DF000C02
:1014E00083C284F20201856B8451090805E20A0E69
:1014F000845F100E852703D08451852701D0F4D74F
:1015000085C201F00001000C0201829F1F0E7F17AF
:101510007FC283F20001E4DF01C07FF202017F8D10
:10152000805302E07F8B01D07F9B948800D094860B
:1015300000D000008B98949800D08B969496D00E93
:10154000846F00010EDE0201846B00010ADE82C29C
:1015500083F2C6DF01C083F201C084F202DE81C2E1
:1015600083F2BEDF01C083F201C084F2FADD7FC2E4
:1015700084F2F7DD7EC283F2B3DF01C083F201C0E3
:1015800084F2EFDD7BC283F2ABDF01C083F201C0E6
:1015900084F2E7DD7CC283F2A3DF01C083F201C0E5
:1015A00084F2DFDD7DC283F29BDF01C083F201C0E4
:1015B00084F2D7DD800E0201846F0001D2DD9498A1
:1015C0000000948682A6FED700D000D00000948848
:1015D00000D0D3EF1FF002017B6B7B513F084EE33D
:1015E0007C6B7C510F0848E3070E7D6F7D51800AAC
:1015F0007F0840E27F6B7BC27EF2816B100E806FB2
:101600000001CCEC05F002C07FF201C07EF20201C5
:101610007C510124016E000E0220036E0150F2CFB6
:101620007EF2F29E03C0F7FF00010DEC03F0020111
:101630007EBFF28E7E6F070ED8807D557F6F7EC293
:1016400000F07F51016E04E0D8900032012EFCD7EB
:1016500000A00ED07C51080DF3507D257E6F966F53
:101660007BC297F2010E986F0001FCEC05F00201BD
:101670007D07BCD77C2BB5D77B2BAFD70001000CE7
:10168000090E0201855F0CE3020EEA6E850EE96E1B
:10169000D890EF32EF5004E001D00000EF2EFDD7DC
:1016A0000001000C94928B92020E0201846FF80EDE
:1016B000856F0001E5DF0201842FF9D79482020EC5
:1016C000846FF80E856F0001DBDF0201842FF9D7EC
:1016D00094820001000C0201856B8551070815E317
:1016E00094928B9200D000D0D890843302E28B92F7
:1016F00001D08B829492270E006E002EFED700D070
:10170000948200D000D0852BE8D70001000C0201A4
:10171000846B8451070817E394928B9200D000D019
:101720009482050E006E002EFED7948282B202D003
:10173000D89001D0D88085334F0E006E002EFED792
:1017400000D0842BE6D785C201F00001000C8E0E7C
:10175000006E85C201F084C202F0036A01AE05D0BA
:10176000011E021E022A01E1012A015209E102C002
:1017700001F0026A080E005E015202E1006A0DD01B
:10178000D89001BE04D0023601360006F9D7020116
:1017900085AF02D0000101D0019E0001B0EF0CF036
:1017A00002018851D8B4A5D0946F8C51D8B4A1D07F
:1017B000945F05E37F0E9427D8B09BD006D0810EAE
:1017C000945FD8A096D0D8B494D094C200F0016AA7
:1017D000026A036A936B89C292F2928F8AC291F273
:1017E0008BC290F2190E946F8F51905F0DE2010E33
:1017F000915F0AE2925F08E2935F06E2932B922BDD
:10180000912B8F51902728D08E51915F12E2010EBB
:10181000925F0FE2935F0DE2932B922B8E519127F3
:101820008F51902719E3912B17E1922B15E1932B00
:1018300013D08D518009925F0EE2010E935F0BE28F
:10184000932B8D51800992278E519127E9E3922B9A
:10185000E7E1932BE5D70380942F01D00BD0D890EC
:101860009037913792379337D89003360236013646
:101870009537BAD795A106D0D890013202320332FB
:10188000953302D0000635E095BF1ED0D890903732
:101890009137923793378F51905F07E2010E915F36
:1018A00004E2925F02E2935F1AE38E51915F05E2D8
:1018B000010E925F02E2935F12E38D518009925F05
:1018C00003E2010E935F0BE3032A09E1022A07E119
:1018D000012A05E1002A0DE001320232033289C2F9
:1018E00094F28D51941B94AF02D0018E06D0019ECC
:1018F00004D0006A016A026A036A0001000C020156
:101900007B6B0001CFDECC0E0201846F0001E3DEB1
:10191000440E0201846F0001DEDE02017B5305E10B
:101920000001F5DE01C07BF2F8D70001BBDECC0E72
:101930000201846F0001CFDEBE0E0201846F000140
:10194000CADEE5DE01C07CF2E2DE01C07DF27DC2CE
:101950007FF27CC27EF27FC285F27EC284F2F7D62D
:1019600000C084F201C085F202C086F203C087F293
:1019700003C08BF202C08AF201C089F200C088F273
:1019800002018F6B8E6B8D6B800E8C6F000108DFF8
:1019900003C083F202C082F201C081F200C080F273
:1019A000C80E0201846F0001C1EC06F080C200F095
:1019B00081C201F082C202F083C203F0000C020176
:1019C0008851D8B471D0006E8C51D8B46DD0002637
:1019D00004E3810E002668E204D07F0E005E64E31B
:1019E00063E089C290F28D51901B898F8D8F8B514E
:1019F0008F03F4CF92F28A518E03F4CF03F0F3CF2A
:101A000091F28F03F3509227F4509123000E03229A
:101A10008B518E03F3509227F4509123000E026AEB
:101A20000322022289518F03F3509127F45003229D
:101A3000000E022289518E03F3500326F450022235
:101A4000000E016A01228B518D03F3509127F4504F
:101A50000322000E022201228A518D03F350032635
:101A6000F4500222000E012289518D03F350022608
:101A7000F4500122002A01BE05D091370336023608
:101A800001360006000E91AF0AD0032A022201227D
:101A9000015005E1025003E1035001E1002A90BF2B
:101AA000018E90AF019E04D0006A016A026A036A47
:101AB0000001D3EF0DF002018851B608886F036A68
:101AC00089C28CF2898FD89089338A338B33033261
:101AD000023201320032882FF6D78CAF0BD0001EB5
:101AE000011E021E031E002AD8B4012AD8B4022AFD
:101AF000D8B4032A0001E8EF0DF0006A016A026A17
:101B0000036A0201906B916B926B936B8F518E11F4
:101B10008D118C112CE0200E946FD8908837893766
:101B20008A378B3790379137923793378F51935D40
:101B300008E18E51925D05E18D51915D02E18C517C
:101B4000905D0FE38C51905F8D51D8A08D3D915FDA
:101B50008E51D8A08E3D925F8F51D8A08F3D935F5C
:101B6000D8800036013602360336942FD6D7020EBF
:101B7000EA6E900EE96E0001000CE9500201806FE0
:101B80007F51826F1BE07EC28BF27DC28AF27CC2E3
:101B900089F27BC288F28F6B8E6B200E8D6F820E66
:101BA0008C6F00010CD703C07EF202C07DF201C031
:101BB0007CF200C07BF20201822FE5D77EC28BF25D
:101BC0007DC28AF27CC289F27BC288F2000173D79F
:101BD00003C07EF202C07DF201C07CF200C07BF245
:101BE00002017EAF0DD08007808B7B1F7C1F7D1F85
:101BF0007E1F7B2BD8B47C2BD8B47D2BD8B47E2B06
:101C00003B0E876F9A0E866FCA0E856F846B0A0E25
:101C1000826F7F51D8B4802B7EC28BF27DC28AF254
:101C20007CC289F27BC288F287C28FF286C28EF2B2
:101C300085C28DF284C28CF200015FDF0150EFCFCC
:101C40007BF2ECCF7CF2ECCF7DF2ECCF7EF2005257
:101C500013E102017F29825DD8A402D000010CD0DB
:101C600080510DE00F0B825D01E044E280BF42D065
:101C700080BD05D0200E37D0200E0201801780AB2A
:101C80000FD0809B7F51D8A480070050806F2D0E0D
:101C9000886F0001F1EC09F002018051006E806B49
:101CA0007F51825D0DE10050806F2E0E886F000124
:101CB000F1EC09F002018051006E200E8017000E39
:101CC000300E80AB10D0809B7F51D8A4800700508D
:101CD000806F2D0E886F0001F1EC09F00201805138
:101CE000006E806B300E002600C088F20001F1EC1F
:101CF00009F0020187C28BF286C28AF285C289F29C
:101D000084C288F28F6B8E6B8D6B0A0E8C6F000114
:101D1000F4DE03C087F202C086F201C085F200C083
:101D200084F20201822F78D70001000CF86AD09E5D
:101D3000EA6AE96AB8960C0EAF6EA20EAC6E900E0F
:101D4000AB6E126A120E136E1C0E156E0A0E176E13
:101D5000196E050E1B6E010E1D6E1F6A206A216A28
:101D6000226A236A256A2A6A296A286A276AC15070
:101D7000C00B0F09C16E070EB46E530EA66F490E4D
:101D8000A76F530EA86F540EA96F450EAA6F4D0E84
:101D9000AB6F410EAC6F200EAD6F490EAE6F4E0EA5
:101DA000AF6F560EB06F450EB16F520EB26F4E0E42
:101DB000B36F410EB46F440EB56F450EB66F520E41
:101DC000B76F4F0EB86FB96B430EBA6F6F0EBB6F24
:101DD0006E0EBC6F660EBD6F690EBE6F670EBF6F75
:101DE000750EC06F720EC16F610EC26F720EC36F3F
:101DF000200EC46F530EC56F690EC66F730EC76F8A
:101E0000740EC86F650EC96F6D0ECA6F610ECB6F11
:101E10003F0ECC6FCD6B480ECE6F6F0ECF6F720E34
:101E2000D06F610ED16F2F0ED26F460ED36F650E3D
:101E3000D46F630ED56F680ED66F610ED76F200E0C
:101E4000D86F410ED96F630EDA6F740EDB6F750EAB
:101E5000DC6F610EDD6F6C0EDE6F3A0EDF6FE06BD4
:101E6000430EE16F6F0EE26F6E0EE36F660EE46F6E
:101E7000200EE56F480EE66F6F0EE76F720EE86F8B
:101E8000610EE96F200EEA6F260EEB6F200EEC6FED
:101E9000460EED6F650EEE6F630EEF6F680EF06F1E
:101EA000610EF16FF26B430EF36F6F0EF46F6E0EF7
:101EB000F56F660EF66F200EF76F540EF86F650E15
:101EC000F96F6D0EFA6F700EFB6F650EFC6F720E80
:101ED000FD6F610EFE6F740EFF6F750E0101006FD6
:101EE000720E016F610E026F036B430E046F6F0E73
:101EF000056F6E0E066F660E076F200E086F520E8E
:101F0000096F690E0A6F650E0B6F670E0C6F6F0E0F
:101F10000D6F0E6B440E0F6F6F0E106F6D0E116F05
:101F2000690E126F6E0E136F670E146F6F0E156FC2
:101F3000166B4C0E176F750E186F6E0E196F650EBF
:101F40001A6F730E1B6F1C6B4C0E1D6F750E1E6F80
:101F50001F6B4D0E206F610E216F226B4D0E236F94
:101F6000690E246F256B4A0E266F750E276F286B3E
:101F7000560E296F690E2A6F2B6B530E2C6F610E54
:101F80002D6F2E6B440E2F6F6F0E306F316B4D0E19
:101F9000326F610E336F720E346F740E356F650ED3
:101FA000366F730E376F386B4D0E396F690E3A6F9F
:101FB000650E3B6F720E3C6F630E3D6F6F0E3E6F92
:101FC0006C0E3F6F650E406F730E416F426B4A0E91
:101FD000436F750E446F650E456F760E466F650E46
:101FE000476F730E486F496B560E4A6F690E4B6F01
:101FF000650E4C6F720E4D6F6E0E4E6F650E4F6F0D
:10200000730E506F516B530E526F610E536F620E11
:10201000546F610E556F640E566F6F0E576F586B8D
:102020004D0E596F690E5A6F650E5B6F720E5C6FC5
:10203000630E5D6F6F0E5E6F5F6B560E606F690EA5
:10204000616F650E626F720E636F6E0E646F650E68
:10205000656F666B440E676F6F0E686F6D0E696F0C
:10206000690E6A6F6E0E6B6F670E6C6F6D6B530E41
:102070006E6F690E6F6F706B4E0E716F6F0E726FB9
:10208000736B480E746F6F0E756F720E766F610E04
:10209000776F786B460E796F650E7A6F630E7B6F84
:1020A000680E7C6F610E7D6F7E6B530E7F6F610ECD
:1020B000806F6C0E816F690E826F720E836F846BFE
:1020C000410E856F4A0E866F550E876F530E886FCF
:1020D000540E896F450E8A6F200E8B6F440E8C6FE5
:1020E000450E8D6F200E8E6F480E8F6F4F0E906FC6
:1020F000520E916F410E926F936B946F4A0E956FD3
:10210000550E966F530E976F540E986F450E996F3C
:10211000200E9A6F440E9B6F450E9C6F200E9D6F94
:10212000460E9E6F450E9F6F430EA06F480EA16F27
:10213000410EA26FA36B450EA46F730EA56F740EB4
:10214000A66F610EA76F620EA86F6C0EA96F650E69
:10215000AA6F630EAB6F650EAC6F720EAD6FAE6B98
:10216000410EAF6F4D0EB06FB16B500EB26F4D0E92
:10217000B36FB46B680EB56FB66B6D0EB76FB86B9F
:10218000440EB96F610EBA6F740EBB6F6F0EBC6FE9
:10219000730EBD6FBE6B470EBF6F750EC06F610EC5
:1021A000C16F720EC26F640EC36F610EC46F640E96
:1021B000C56F6F0EC66F730EC76F210EC86FC96BE8
:1021C000540ECA6F450ECB6F4D0ECC6F500ECD6FB7
:1021D000200ECE6F410ECF6F430ED06F540ED16FD5
:1021E000550ED26F410ED36F4C0ED46FD56B4D0E82
:1021F000D66F690ED76F6E0ED86FD96B4D0EDA6F32
:10220000610EDB6F780EDC6FDD6B540EDE6F650EDA
:10221000DF6F6D0EE06F700EE16F200EE26F4D0EFE
:10222000E36F690EE46F6E0EE56F690EE66F6D0E7B
:10223000E76F610EE86FE96B540EEA6F650EEB6FA6
:102240006D0EEC6F700EED6F200EEE6F4D0EEF6F9A
:10225000610EF06F780EF16F690EF26F6D0EF36F15
:10226000610EF46FF56B4E0EF66F650EF76F620E32
:10227000F86F750EF96F6C0EFA6F690EFB6F7A0EC0
:10228000FC6F610EFD6F630EFE6F690EFF6F6F0EC8
:102290000201006F6E0E016F026B470E036F6F0E2F
:1022A000046F740E056F650E066F6F0E076F086B77
:1022B000430E096F6F0E0A6F6E0E0B6F660E0C6F7A
:1022C000690E0D6F670E0E6F750E0F6F720E106F29
:1022D000610E116F720E126F200E136F520E146F7B
:1022E000690E156F650E166F670E176F6F0E186FFC
:1022F000196B530E1A6F650E1B6F6E0E1C6F730EEB
:102300001D6F610E1E6F640E1F6F6F0E206F216BAD
:10231000540E226F650E236F6D0E246F700E256FA5
:102320006F0E266F720E276F690E286F7A0E296F57
:10233000610E2A6F640E2B6F6F0E2C6F2D6B540E77
:102340002E6F690E2F6F650E306F6D0E316F700E30
:10235000326F6F0E336F200E346F640E356F650E63
:10236000366F200E376F520E386F650E396F700E54
:102370003A6F6F0E3B6F730E3C6F6F0E3D6F3E6B8F
:10238000540E3F6F690E406F650E416F6D0E426FC8
:10239000700E436F6F0E446F200E456F640E466FD4
:1023A000650E476F200E486F520E496F690E4A6FD7
:1023B000650E4B6F670E4C6F6F0E4D6F4E6B4E0E72
:1023C0004F6F750E506F6D0E516F650E526F720E1E
:1023D000536F6F0E546F200E556F640E566F650E5F
:1023E000576F200E586F430E596F690E5A6F630E68
:1023F0005B6F6C0E5C6F6F0E5D6F730E5E6F5F6B6D
:10240000430E606F690E616F630E626F6C0E636FD7
:102410006F0E646F730E656F666B440E676F690EA7
:10242000686F610E696F730E6A6F200E6B6F640EBA
:102430006C6F650E6D6F200E6E6F540E6F6F720EA7
:10244000706F610E716F620E726F610E736F6A0E44
:10245000746F6F0E756F766B776B786BC150C00BB6
:102460000E09C16EC050C00BC06EC09EC28096984F
:10247000D190800ED56ECD6A000ECA6E000ECB6E66
:10248000B16A070EB46E9550956E9650966E060E14
:10249000006E002EFED70000B450A19CB56A710EEC
:1024A000D36E800E9B6ED350180E796F200E7A6F0C
:1024B000010E7B6F000178EF05F002017C6B0001DB
:1024C00031EC05F06DEF06F0040E02017B6FFA0EA1
:1024D000846F0001C1EC06F002017B2FF8D77C6B02
:1024E000000131EC05F002017B6B7C6B7F0E7D6F90
:1024F0003F0E7E6F7F6B010E806F000174EC07F062
:10250000010E02017B6F7C6F7E0E7D6F3E0E7E6F33
:102510007F6B010E806F000174EC07F0050E020165
:102520007B6F7C6F7E6BA60E7D6F010E7F6F806F61
:102530000001D5EC07F0080E02017B6F140E7C6FD2
:102540007E6BBA0E7D6F010E7F6F806F0001D5EC40
:1025500007F0050E02017B6F250E7C6F3D0E7D6F2F
:102560003A0E7E6F010E7F6F806F000174EC07F0F2
:10257000410E02017B6F250E7C6F780E7D6F3A0E47
:102580007E6F010E7F6F806F000174EC07F01C0EF0
:1025900002017B6F2C0E7C6F010E7E6F6E0E7D6FC5
:1025A000010E7F6F806B0001D5EC07F0560E020123
:1025B0007B6F2C0E7C6F010E7E6F710E7D6F010E96
:1025C0007F6F806B0001D5EC07F0060E02017B6F78
:1025D000260E7C6F3C0E7D6F390E7E6F7F6B806B9D
:1025E000000174EC07F0000E016EC250C30B011025
:1025F000C26E0D0E006E002EFED7C282C2B2FED792
:10260000C4CF04F0640E0201846F0001C1EC06F037
:102610000450F0080CE2C282C2B2FED7C4CF04F06C
:10262000320E0201846F0001C1EC06F0F1D70450B4
:10263000C30805E20450E00802E37AD078D00450E1
:10264000A508D8B074D00450B808D8A070D0060E31
:1026500002017B6F260E7C6F3C0E7D6F390E7E6F04
:102660007F6B010E806F000174EC07F0420E0201D7
:102670007B6F260E7C6F770E7D6F390E7E6F7F6BC2
:10268000806B000174EC07F0640E0201846F00019E
:10269000C1EC06F0C282C2B2FED7C4CF04F01A0E5B
:1026A000006E002EFED700000450F0080CE2C2823B
:1026B000C2B2FED7C4CF04F0320E0201846F000113
:1026C000C1EC06F0F1D70450C30805E20450E0085D
:1026D00002E3F7EF33F00450730828E20450860851
:1026E00025E3420E02017B6F260E7C6F770E7D6F15
:1026F000390E7E6F7F6B010E806F000174EC07F066
:10270000060E02017B6F260E7C6F3C0E7D6F390E2C
:102710007E6F7F6B806B000174EC07F0320E02015C
:10272000846F0001C1EC06F068D701D066D765D789
:1027300002017C6B000131EC05F002017B6B7C6BCC
:102740007F0E7D6F3F0E7E6F7F6B010E806F0001ED
:1027500074EC07F0010E02017B6F7C6F7E0E7D6FC3
:102760003E0E7E6F7F6B010E806F000174EC07F0F0
:10277000050E02017B6F7C6F7A0E7D6F160E7E6FE9
:10278000010E7F6F806F000174EC07F00A0E0201EA
:102790007B6F7C6F7E6BE10E7D6F010E7F6F806BB8
:1027A0000001D5EC07F0050E02017B6F190E7C6F5E
:1027B0007A0E7D6F270E7E6F010E7F6F806F000196
:1027C00074EC07F00A0E02017B6F1E0E7C6F7E6BAD
:1027D000F30E7D6F010E7F6F806B0001D5EC07F06B
:1027E000050E02017B6F2A0E7C6F7A0E7D6F380E0C
:1027F0007E6F010E7F6F806F000174EC07F00A0E90
:1028000002017B6F2F0E7C6F010E7E6F040E7D6FB9
:10281000010E7F6F806B0001D5EC07F0060E020100
:102820007B6F7C6F790E7D6F150E7E6F7F6B806B7B
:10283000000174EC07F0C282C2B2FED7C4CF04F02C
:10284000640E0201846F0001C1EC06F00450F00830
:102850000CE2C282C2B2FED7C4CF04F0320E020133
:10286000846F0001C1EC06F0F1D70450C30805E203
:102870000450E00802E30DD141D004503C083EE290
:10288000045059083BE3060E02017B6F7C6F790E02
:102890007D6F150E7E6F7F6B010E806F000174ECF3
:1028A00007F0060E02017B6F1A0E7C6F790E7D6FAA
:1028B000260E7E6F7F6B806B000174EC07F0640E58
:1028C0000201846F0001C1EC06F0C282C2B2FED7E1
:1028D000C4CF04F01A0E006E002EFED70000045084
:1028E000F0080CE2C282C2B2FED7C4CF04F0320EAE
:1028F0000201846F0001C1EC06F0F1D70450C30857
:1029000006E20450E00803E315EF20F009D004507C
:102910003C0805E20450590802E302D001D08BD7ED
:10292000060E02017B6F1A0E7C6F790E7D6F260EEC
:102930007E6F7F6B010E806F000174EC07F0060E56
:1029400002017B6F2B0E7C6F790E7D6F370E7E6FD1
:102950007F6B806B000174EC07F0320E0201846F14
:102960000001C1EC06F0C282C2B2FED7C4CF04F0AF
:102970001A0E006E002EFED700000450F0080CE284
:10298000C282C2B2FED7C4CF04F0320E0201846FFD
:102990000001C1EC06F0F1D70450C30805E2045071
:1029A000E00802E3F0EF25F004500A08D8B070D038
:1029B000045027086DE3060E02017B6F2B0E7C6F1F
:1029C000790E7D6F370E7E6F7F6B010E806F000179
:1029D00074EC07F0060E02017B6F1A0E7C6F790E05
:1029E0007D6F260E7E6F7F6B806B000174EC07F0AD
:1029F000320E0201846F0001C1EC06F0C282C2B245
:102A0000FED7C4CF04F01A0E006E002EFED70000D1
:102A10000450F0080CE2C282C2B2FED7C4CF04F068
:102A2000320E0201846F0001C1EC06F0F1D70450B0
:102A3000C30805E20450E00802E315EF20F004505B
:102A40000A0826E20450270823E3060E02017B6FE2
:102A50001A0E7C6F790E7D6F260E7E6F7F6B010ED6
:102A6000806F000174EC07F0060E02017B6F7C6F33
:102A7000790E7D6F150E7E6F7F6B806B000174EC9D
:102A800007F0320E0201846F0001C1EC06F0D3D6CC
:102A900047D702017C6B000131EC05F002017B6B32
:102AA0007C6B7F0E7D6F3F0E7E6F7F6B010E806FA4
:102AB000000174EC07F0010E02017B6F7C6F7E0E4B
:102AC0007D6F3E0E7E6F7F6B010E806F000174EC98
:102AD00007F0050E02017B6F7C6F7E6BCE0E7D6F63
:102AE000010E7F6F806F0001D5EC07F01CEC09F040
:102AF0000201786B2E0E776F0AC07BF2010E7C6F9D
:102B0000000101EC0AF03A0E0201886F0001F1ECBD
:102B100009F00BC07BF2010E02017C6F000101EC99
:102B20000AF03A0E0201886F0001F1EC09F00CC0C6
:102B30007BF2010E02017C6F000101EC0AF0200E15
:102B40000201886F0001F1EC09F02BC088F2F1EC72
:102B500009F04D0E0201886F0001F1EC09F0050E3D
:102B600002017B6F0F0E7C6F7E6B2E0E7D6F010E50
:102B70007F6F806F0001D5EC07F00201786B2E0E9D
:102B8000776F0EC07BF2010E7C6F000101EC0AF042
:102B90002F0E0201886F0001F1EC09F00FC07BF2EB
:102BA000010E02017C6F000101EC0AF02F0E020100
:102BB000886F0001F1EC09F011C07BF2010E0201F7
:102BC0007C6F000101EC0AF0050E02017B6F190E0B
:102BD0007C6F7E6B2E0E7D6F010E7F6F806F00010C
:102BE000D5EC07F0102C0FD03C0E02017B6F190EB4
:102BF0007C6F010E7E6F0F0E7D6F010E7F6F806FF9
:102C00000001D5EC07F0105002080FE13C0E020164
:102C10007B6F190E7C6F010E7E6F170E7D6F010E9C
:102C20007F6F806F0001D5EC07F0105003080FE1B3
:102C30003C0E02017B6F190E7C6F010E7E6F320E0F
:102C40007D6F010E7F6F806F0001D5EC07F0105093
:102C500004080FE13C0E02017B6F190E7C6F010E20
:102C60007E6F390E7D6F010E7F6F806F0001D5EC96
:102C700007F0105005080FE13C0E02017B6F190EA2
:102C80007C6F010E7E6F430E7D6F010E7F6F806F34
:102C90000001D5EC07F0105006080FE13C0E0201D0
:102CA0007B6F190E7C6F010E7E6F4A0E7D6F010ED9
:102CB0007F6F806F0001D5EC07F0105007080FE11F
:102CC0003C0E02017B6F190E7C6F010E7E6F520E5F
:102CD0007D6F010E7F6F806F0001D5EC07F0080E4D
:102CE00002017B6F250E7C6F2B0E7D6F3A0E7E6F7F
:102CF000010E7F6F806F000174EC07F02E0E020151
:102D00007B6F250E7C6F510E7D6F3A0E7E6F010E2C
:102D10007F6F806F000174EC07F0540E02017B6F2F
:102D2000250E7C6F770E7D6F3A0E7E6F010E7F6FE2
:102D3000806F000174EC07F0090E02017B6F260E14
:102D40007C6F2A0E7D6F390E7E6F7F6B806B00016A
:102D500074EC07F00E0E02017B6F2D0E7C6F010EDE
:102D60007E6F740E7D6F010E7F6F806B0001D5EC5E
:102D700007F0310E02017B6F2D0E7C6F010E7E6F0E
:102D8000790E7D6F010E7F6F806B0001D5EC07F02F
:102D9000560E02017B6F2D0E7C6F010E7E6F7F0E33
:102DA0007D6F010E7F6F806B0001D5EC07F0C28252
:102DB000C2B2FED7C4CF04F0320E0201846F00010C
:102DC000C1EC06F00450E6086BE21CEC09F0320E90
:102DD0000201846F0001C1EC06F00D500C5C55E05F
:102DE000050E02017B6F0F0E7C6F7E6B2E0E7D6FCA
:102DF000010E7F6F806B0001D5EC07F00201786B4C
:102E00002E0E776F0AC07BF2010E7C6F000101EC81
:102E10000AF03A0E0201886F0001F1EC09F00BC0D4
:102E20007BF2010E02017C6F000101EC0AF03A0E08
:102E30000201886F0001F1EC09F00CC07BF2010E79
:102E400002017C6F000101EC0AF0200E0201886F84
:102E50000001F1EC09F02BC088F2F1EC09F04D0E05
:102E60000201886F0001F1EC09F0050E02017B6F91
:102E70000F0E7C6F7E6B2E0E7D6F010E7F6F806F4D
:102E80000001D5EC07F00CC00DF0C282C2B2FED733
:102E9000C4CF04F01A0E006E002EFED7000092D7A9
:102EA0000450C30805E20450E00802E30DD109D143
:102EB0000450A508D8B005D10450B808D8A001D155
:102EC000090E02017B6F260E7C6F2A0E7D6F390E74
:102ED0007E6F7F6B010E806F000174EC07F02F0E88
:102EE00002017B6F260E7C6F500E7D6F390E7E6F58
:102EF0007F6B806B000174EC07F0550E02017B6F55
:102F0000260E7C6F760E7D6F390E7E6F7F6B010E05
:102F1000806F000174EC07F0020E02017B6FFA0E65
:102F2000846F0001C1EC06F002017B2FF8D7C2824A
:102F3000C2B2FED7C4CF04F0320E846F0001C1ECE0
:102F400006F00450F0080CE2C282C2B2FED7C4CF31
:102F500004F0320E0201846F0001C1EC06F0F1D7DB
:102F60000450C30805E20450E00802E305EF1CF03A
:102F70000450730837E20450860834E3090E020156
:102F80007B6F260E7C6F2A0E7D6F390E7E6F7F6BF6
:102F9000806B000174EC07F02F0E02017B6F260E90
:102FA0007C6F500E7D6F390E7E6F7F6B010E806FD0
:102FB000000174EC07F0550E02017B6F260E7C6F4A
:102FC000760E7D6F390E7E6F7F6B010E806F000174
:102FD00074EC07F0320E0201846F0001C1EC06F0C0
:102FE000E6D66FD00450A508D8B06BD00450B8080E
:102FF000D8A067D0090E02017B6F260E7C6F2A0EC7
:103000007D6F390E7E6F7F6B010E806F000174EC57
:1030100007F02F0E02017B6F260E7C6F500E7D6F26
:10302000390E7E6F7F6B010E806F000174EC07F02C
:10303000550E02017B6F260E7C6F760E7D6F390E6A
:103040007E6F7F6B806B000174EC07F0640E0201F1
:10305000846F0001C1EC06F0C282C2B2FED7C4CFB9
:1030600004F01A0E006E002EFED700000450F00887
:103070000CE2C282C2B2FED7C4CF04F0320E02010B
:10308000846F0001C1EC06F0F1D70450C30808E2D8
:103090000450E00805E302016FEF12F013D00001C5
:1030A0000450730805E20450860802E309D709D0EA
:1030B0000450A50805E20450B80802E378D601D010
:1030C00076D60201000173D602017C6B000131EC5F
:1030D00005F002017B6B7C6B7F0E7D6F3F0E7E6F78
:1030E0007F6B010E806F000174EC07F0010E02018E
:1030F0007B6F7C6F7E0E7D6F3E0E7E6F7F6B010E51
:10310000806F000174EC07F0160E02017B6F050E54
:103110007C6F010E7E6F850E7D6F010E7F6F806F5D
:103120000001D5EC07F00201786B2E0E776F0AC014
:103130007BF2010E7C6F000101EC0AF03A0E0201F5
:10314000886F0001F1EC09F00BC07BF2010E020167
:103150007C6F000101EC0AF0200E0201886F000173
:10316000F1EC09F02BC088F2F1EC09F04D0E0201F0
:10317000886F0001F1EC09F0140E02017B6F120E52
:103180007C6F7E6B2E0E7D6F020E7F6F010E806F47
:103190000001D5EC07F0140E02017B6F220E7C6F4C
:1031A000280E7D6F230E7E6F010E7F6F806F0001F2
:1031B00074EC07F0080E02017B6F280E7C6F770E0F
:1031C0007D6F3A0E7E6F010E7F6F806F000174EC91
:1031D00007F0220E02017B6F2E0E7C6F010E7E6FB8
:1031E000A40E7D6F010E7F6F806B0001D5EC07F0A0
:1031F0000AC008F00BC009F00EC005F00FC006F0C1
:1032000011C007F0140E02017B6F220E7C6F280E96
:103210007D6F230E7E6F010E7F6F806F000174EC57
:1032200007F0340E02017B6F220E7C6F490E7D6F1A
:10323000230E7E6F010E7F6F806B000174EC07F030
:10324000550E02017B6F220E7C6F6B0E7D6F230E7D
:103250007E6F010E7F6F806B000174EC07F0090E2A
:1032600002017B6F290E7C6F760E7D6F390E7E6FAB
:103270007F6B010E806F000174EC07F0C282C2B256
:10328000FED7C4CF04F0320E0201846F0001C1ECFE
:1032900006F00450E6080CE2C282C2B2FED7C4CFE8
:1032A00004F0320E0201846F0001C1EC06F0F1D788
:1032B00004500A0839E20450270836E308500B0886
:1032C00001E2086A082A140E02017B6F120E7C6F5D
:1032D000280E7D6F200E7E6F010E7F6F806B0001C8
:1032E00074EC07F00201786B2E0E776F08C07BF24A
:1032F000010E7C6F000101EC0AF0140E02017B6FDD
:10330000120E7C6F7E6B2E0E7D6F020E7F6F010E94
:10331000806F0001D5EC07F0640E0201846F00019C
:10332000C1EC06F06FD770D204503C0839E204506B
:10333000590836E3085202E10D0E086E0806140E15
:1033400002017B6F120E7C6F280E7D6F200E7E6F48
:10335000010E7F6F806B000174EC07F00201786B47
:103360002E0E776F08C07BF2010E7C6F000101EC1E
:103370000AF0140E02017B6F120E7C6F7E6B2E0E14
:103380007D6F020E7F6F010E806F0001D5EC07F09C
:10339000640E0201846F0001C1EC06F033D734D211
:1033A0000450A508D8B02FD20450B808D8A02BD20A
:1033B000140E02017B6F220E7C6F280E7D6F230E90
:1033C0007E6F010E7F6F806B000174EC07F0340E8E
:1033D00002017B6F220E7C6F490E7D6F230E7E6F84
:1033E000010E7F6F806F000174EC07F0550E020133
:1033F0007B6F220E7C6F6B0E7D6F230E7E6F010E36
:103400007F6F806B000174EC07F0090E02017B6F87
:10341000290E7C6F760E7D6F390E7E6F7F6B010EED
:10342000806F000174EC07F0C80E0201846F000188
:10343000C1EC06F0C282C2B2FED7C4CF04F0320E95
:103440000201846F0001C1EC06F00450E6080CE2B2
:10345000C282C2B2FED7C4CF04F0320E0201846F22
:103460000001C1EC06F0F1D704500A0838E204501C
:10347000270835E3092A09503B0801E2096A340E9E
:1034800002017B6F120E7C6F4A0E7D6F200E7E6FE5
:10349000010E7F6F806B000174EC07F00201786B06
:1034A0002E0E776F09C07BF2010E7C6F000101ECDC
:1034B0000AF0340E02017B6F120E7C6F7E6B2E0EB3
:1034C0007D6F020E7F6F010E806F0001D5EC07F05B
:1034D000C80E0201846F0001C1EC06F069D70450E8
:1034E0003C0839E20450590836E309060950FF0840
:1034F00002E13B0E096E340E02017B6F120E7C6FEF
:103500004A0E7D6F200E7E6F010E7F6F806B000173
:1035100074EC07F00201786B2E0E776F09C07BF216
:10352000010E7C6F000101EC0AF0340E02017B6F8A
:10353000120E7C6F7E6B2E0E7D6F020E7F6F010E62
:10354000806F0001D5EC07F0640E0201846F00016A
:10355000C1EC06F02DD70450730846E204508608EB
:1035600043E3140E02017B6F220E7C6F280E7D6FE9
:10357000230E7E6F010E7F6F806F000174EC07F0E9
:10358000340E02017B6F220E7C6F490E7D6F230E7D
:103590007E6F010E7F6F806B000174EC07F0550E9B
:1035A00002017B6F220E7C6F6B0E7D6F230E7E6F90
:1035B000010E7F6F806B000174EC07F0090E0201B1
:1035C0007B6F290E7C6F760E7D6F390E7E6F7F6B61
:1035D000010E806F000174EC07F0C80E0201846FC9
:1035E0000001C1EC06F00ED60450A508D8B00AD1EF
:1035F0000450B808D8A006D1140E02017B6F220E29
:103600007C6F280E7D6F230E7E6F010E7F6F806BA7
:10361000000174EC07F0340E02017B6F220E7C6F08
:10362000490E7D6F230E7E6F010E7F6F806B000150
:1036300074EC07F0550E02017B6F220E7C6F6B0E4F
:103640007D6F230E7E6F010E7F6F806F000174EC23
:1036500007F0090E02017B6F290E7C6F760E7D6FDD
:10366000390E7E6F7F6B010E806F000174EC07F0E6
:10367000C80E0201846F0001C1EC06F0C282C2B222
:10368000FED7C4CF04F0320E0201846F0001C1ECFA
:1036900006F00450E6080CE2C282C2B2FED7C4CFE4
:1036A00004F0320E0201846F0001C1EC06F0F1D784
:1036B00004500A0825E20450270822E3010E2B6E6D
:1036C000550E02017B6F120E7C6F660E7D6F200E11
:1036D0007E6F010E7F6F806B000174EC07F0560E59
:1036E00002017B6F120E7C6F010E7E6FAF0E7D6F3D
:1036F000020E7F6F010E806F0001D5EC07F07CD7C2
:1037000004503C0824E20450590821E32B6A550E6A
:1037100002017B6F120E7C6F660E7D6F200E7E6F36
:10372000010E7F6F806B000174EC07F0560E0201F2
:103730007B6F120E7C6F010E7E6FB20E7D6F020EDC
:103740007F6F010E806F0001D5EC07F055D7045054
:10375000730804E20450860801E32AD60450A50841
:1037600050E20450B8084DE3550E02017B6F220E63
:103770007C6F6B0E7D6F230E7E6F010E7F6F806BF3
:10378000000174EC07F0090E02017B6F290E7C6FBB
:10379000760E7D6F390E7E6F7F6B806B000174EC4F
:1037A00007F0C80E0201846F0001C1EC06F0C2826E
:1037B000C2B2FED7C4CF04F0320E0201846F000102
:1037C000C1EC06F00450E6080CE2C282C2B2FED799
:1037D000C4CF04F0320E0201846F0001C1EC06F088
:1037E000F1D70450C30805E20450E00802E3C0EF3B
:1037F0001FF00450730804E20450860801E3FCD66D
:1038000001D0CFD701D0FED4FDD402017C6B0001E2
:1038100031EC05F002017B6B7C6B7F0E7D6F3F0E00
:103820007E6F7F6B010E806F000174EC07F0010E5C
:1038300002017B6F7C6F7E0E7D6F3E0E7E6F7F6B15
:10384000010E806F000174EC07F0160E02017B6F11
:10385000050E7C6F010E7E6F940E7D6F010E7F6FE3
:10386000806F0001D5EC07F00201786B2E0E776FA8
:103870000EC07BF2010E7C6F000101EC0AF02F0EEE
:103880000201886F0001F1EC09F00FC07BF2010E1C
:1038900002017C6F000101EC0AF02F0E0201886F1B
:1038A0000001F1EC09F011C07BF2010E02017C6F06
:1038B000000101EC0AF0140E02017B6F120E7C6F06
:1038C0007E6B2E0E7D6F020E7F6F010E806F0001EA
:1038D000D5EC07F0140E02017B6F220E7C6F280ED0
:1038E0007D6F230E7E6F010E7F6F806F000174EC81
:1038F00007F0080E02017B6F280E7C6F770E7D6F3C
:103900003A0E7E6F010E7F6F806F000174EC07F03E
:10391000220E02017B6F2E0E7C6F010E7E6FA40EB5
:103920007D6F010E7F6F806B0001D5EC07F00AC040
:1039300008F00BC009F00EC005F00FC006F011C072
:1039400007F0140E02017B6F220E7C6F280E7D6F34
:10395000230E7E6F010E7F6F806F000174EC07F005
:10396000340E02017B6F220E7C6F490E7D6F230E99
:103970007E6F010E7F6F806B000174EC07F0550EB7
:1039800002017B6F220E7C6F6B0E7D6F230E7E6FAC
:10399000010E7F6F806B000174EC07F0090E0201CD
:1039A0007B6F290E7C6F760E7D6F390E7E6F7F6B7D
:1039B000010E806F000174EC07F0C282C2B2FED724
:1039C000C4CF04F0320E0201846F0001C1EC06F096
:1039D0000450E6080CE2C282C2B2FED7C4CF04F0A3
:1039E000320E0201846F0001C1EC06F0F1D70450E1
:1039F0000A0839E20450270836E305501E0801E2A0
:103A0000056A052A140E02017B6F120E7C6F280EC8
:103A10007D6F200E7E6F010E7F6F806B000174EC56
:103A200007F00201786B2E0E776F05C07BF2010E56
:103A30007C6F000101EC0AF0140E02017B6F120E84
:103A40007C6F7E6B2E0E7D6F020E7F6F010E806F7E
:103A50000001D5EC07F0640E0201846F0001C1EC97
:103A600006F06FD78CD204503C0839E20450590854
:103A700036E30506055202E11F0E056E140E020123
:103A80007B6F120E7C6F280E7D6F200E7E6F010EF5
:103A90007F6F806B000174EC07F00201786B2E0ED3
:103AA000776F05C07BF2010E7C6F000101EC0AF01C
:103AB000140E02017B6F120E7C6F7E6B2E0E7D6FDB
:103AC000020E7F6F010E806F0001D5EC07F0640ECF
:103AD0000201846F0001C1EC06F033D750D20450CC
:103AE000A508D8B04BD20450B808D8A047D2140EBD
:103AF00002017B6F220E7C6F280E7D6F230E7E6F7E
:103B0000010E7F6F806B000174EC07F0340E020130
:103B10007B6F220E7C6F490E7D6F230E7E6F010E30
:103B20007F6F806F000174EC07F0550E02017B6F10
:103B3000220E7C6F6B0E7D6F230E7E6F010E7F6FEA
:103B4000806B000174EC07F0090E02017B6F290EF7
:103B50007C6F760E7D6F390E7E6F7F6B010E806FEE
:103B6000000174EC07F0C80E0201846F0001C1EC83
:103B700006F0C282C2B2FED7C4CF04F0320E0201F8
:103B8000846F0001C1EC06F00450E6080CE2C2822A
:103B9000C2B2FED7C4CF04F0320E0201846F00011E
:103BA000C1EC06F0F1D704500A0839E204502708A6
:103BB00036E3062A06500C0802E2010E066E340EA9
:103BC00002017B6F120E7C6F4A0E7D6F200E7E6F9E
:103BD000010E7F6F806B000174EC07F00201786BBF
:103BE0002E0E776F06C07BF2010E7C6F000101EC98
:103BF0000AF0340E02017B6F120E7C6F7E6B2E0E6C
:103C00007D6F020E7F6F010E806F0001D5EC07F013
:103C1000C80E0201846F0001C1EC06F068D70450A1
:103C20003C0838E20450590835E30606065202E122
:103C30000C0E066E340E02017B6F120E7C6F4A0E64
:103C40007D6F200E7E6F010E7F6F806B000174EC24
:103C500007F00201786B2E0E776F06C07BF2010E23
:103C60007C6F000101EC0AF0340E02017B6F120E32
:103C70007C6F7E6B2E0E7D6F020E7F6F010E806F4C
:103C80000001D5EC07F0640E0201846F0001C1EC65
:103C900006F02DD70450730846E20450860843E32B
:103CA000140E02017B6F220E7C6F280E7D6F230E97
:103CB0007E6F010E7F6F806F000174EC07F0340E91
:103CC00002017B6F220E7C6F490E7D6F230E7E6F8B
:103CD000010E7F6F806B000174EC07F0550E02013E
:103CE0007B6F220E7C6F6B0E7D6F230E7E6F010E3D
:103CF0007F6F806B000174EC07F0090E02017B6F8F
:103D0000290E7C6F760E7D6F390E7E6F7F6B010EF4
:103D1000806F000174EC07F0C80E0201846F00018F
:103D2000C1EC06F00ED60450A508D8B026D1045038
:103D3000B808D8A022D1140E02017B6F220E7C6F2E
:103D4000280E7D6F230E7E6F010E7F6F806B00014A
:103D500074EC07F0340E02017B6F220E7C6F490E6B
:103D60007D6F230E7E6F010E7F6F806B000174EC00
:103D700007F0550E02017B6F220E7C6F6B0E7D6F7C
:103D8000230E7E6F010E7F6F806F000174EC07F0D1
:103D9000090E02017B6F290E7C6F760E7D6F390E46
:103DA0007E6F7F6B010E806F000174EC07F0C80E10
:103DB0000201846F0001C1EC06F0C282C2B2FED7DC
:103DC000C4CF04F0320E0201846F0001C1EC06F092
:103DD0000450E6080CE2C282C2B2FED7C4CF04F09F
:103DE000320E0201846F0001C1EC06F0F1D70450DD
:103DF0000A0833E20450270830E3072A0750500826
:103E000002E2020E076E550E02017B6F120E7C6FEE
:103E10006B0E7D6F200E7E6F010E7F6F806B000139
:103E200074EC07F00201786B2E0E776F07C07BF2FF
:103E3000010E7C6F000101EC0AF0570E02017B6F4E
:103E4000120E7C6F7E6B2E0E7D6F020E7F6F010E49
:103E5000806F0001D5EC07F06ED704503C0833E2C8
:103E60000450590830E307060750010802E3500EDA
:103E7000076E550E02017B6F120E7C6F6B0E7D6F0D
:103E8000200E7E6F010E7F6F806B000174EC07F0D7
:103E90000201786B2E0E776F07C07BF2010E7C6FEC
:103EA000000101EC0AF0570E02017B6F120E7C6FCD
:103EB0007E6B2E0E7D6F020E7F6F010E806F0001F4
:103EC000D5EC07F038D70450730804E20450860894
:103ED00001E30DD60450A5084FE20450B8084CE3A6
:103EE000550E02017B6F220E7C6F6B0E7D6F230ED1
:103EF0007E6F010E7F6F806B000174EC07F0090E7E
:103F000002017B6F290E7C6F760E7D6F390E7E6FFE
:103F10007F6B806B000174EC07F0C80E0201846FA8
:103F20000001C1EC06F0C282C2B2FED7C4CF04F0D9
:103F3000320E0201846F0001C1EC06F00450E60865
:103F40000CE2C282C2B2FED7C4CF04F0320E02012C
:103F5000846F0001C1EC06F0F1D70450C30804E2FD
:103F60000450E00801E30CD00450730804E204504C
:103F7000860801E3E0D601D0D0D701D0E2D4E1D465
:103F800005C07BF206C07CF207C07DF210C07EF255
:103F900008C07FF22BC080F209C081F20201826B5F
:103FA000000184EF0AF002017C6B000131EC05F0A6
:103FB000160E02017B6F030E7C6F010E7E6F940E56
:103FC0007D6F010E7F6F806F0001D5EC07F0EBEC89
:103FD0000AF02D0E02017B6F190E7C6F010E7E6FB1
:103FE000B90E7D6F010E7F6F806F0001D5EC07F079
:103FF0002D0E02017B6F230E7C6F010E7E6FBF0EB4
:104000007D6F010E7F6F806F0001D5EC07F00C0E05
:1040100002017B6FFA0E846F0001C1EC06F0020111
:104020007B2FF8D74AEF15F000017FEC0CF003C0AE
:104030002AF002C029F001C028F000C027F02AC0F1
:104040008BF229C08AF228C089F227C088F20201C7
:104050008F6B8E6B8D6B820E8C6F0001D0EC0BF032
:1040600003C02AF002C029F001C028F000C027F0E8
:1040700002017C6B000131EC05F002017B6B7C6B73
:104080007F0E7D6F3F0E7E6F7F6B010E806F000194
:1040900074EC07F0010E02017B6F7C6F7E0E7D6F6A
:1040A0003E0E7E6F7F6B010E806F000174EC07F097
:1040B000160E02017B6F050E7C6F010E7E6FCA0E1D
:1040C0007D6F010E7F6F806F0001D5EC07F002015C
:1040D000786B420E776F890EE96E2AC07EF229C096
:1040E0007DF228C07CF227C07BF2010E7F6F0001B9
:1040F000BDEC0DF0200E0201886F0001F1EC09F01B
:10410000B00E0201886F0001F1EC09F0430E0201CC
:10411000886F0001F1EC09F0140E02017B6F120EA2
:104120007C6F7E6B420E7D6F020E7F6F010E806F83
:104130000001D5EC07F0080E02017B6F250E7C6FA5
:104140002B0E7D6F3A0E7E6F010E7F6F806F000128
:1041500074EC07F02E0E02017B6F250E7C6F510E62
:104160007D6F3A0E7E6F010E7F6F806F000174ECE1
:1041700007F0540E02017B6F250E7C6F770E7D6F6A
:104180003A0E7E6F010E7F6F806F000174EC07F0B6
:10419000090E02017B6F260E7C6F2A0E7D6F390E91
:1041A0007E6F7F6B806B000174EC07F00E0E0201D6
:1041B0007B6F2D0E7C6F010E7E6FD60E7D6F010E14
:1041C0007F6F806B0001D5EC07F0310E02017B6F31
:1041D0002D0E7C6F010E7E6FDA0E7D6F010E7F6FEC
:1041E000806B0001D5EC07F0560E02017B6F2D0E9F
:1041F0007C6F010E7E6F7F0E7D6F010E7F6F806B77
:104200000001D5EC07F0C282C2B2FED7C4CF04F0E1
:10421000640E0201846F0001C1EC06F00450F00846
:104220000CE2C282C2B2FED7C4CF04F0320E020149
:10423000846F0001C1EC06F0F1D70450C30805E219
:104240000450E00802E308D105D10450A508D8B015
:1042500001D10450B808D8A0FDD0090E02017B6F2F
:10426000260E7C6F2A0E7D6F390E7E6F7F6B010EDE
:10427000806F000174EC07F02F0E02017B6F260E99
:104280007C6F500E7D6F390E7E6F7F6B806B0001EF
:1042900074EC07F0550E02017B6F260E7C6F760ED4
:1042A0007D6F390E7E6F7F6B010E806F000174ECA5
:1042B00007F0640E0201846F0001C1EC06F0C282B7
:1042C000C2B2FED7C4CF04F01A0E006E002EFED785
:1042D00000000450F0080CE2C282C2B2FED7C4CF84
:1042E00004F0320E0201846F0001C1EC06F0F1D738
:1042F0000450C30804E20450E00801E35AD2045019
:10430000730837E20450860834E3090E02017B6F1C
:10431000260E7C6F2A0E7D6F390E7E6F7F6B806B51
:10432000000174EC07F02F0E02017B6F260E7C6FEC
:10433000500E7D6F390E7E6F7F6B010E806F000116
:1043400074EC07F0550E02017B6F260E7C6F760E23
:104350007D6F390E7E6F7F6B010E806F000174ECF4
:1043600007F0320E0201846F0001C1EC06F04BD75A
:1043700071D00450A508D8B06CD00450B808D8A0AB
:1043800068D0090E02017B6F260E7C6F2A0E7D6FAE
:10439000390E7E6F7F6B010E806F000174EC07F0A9
:1043A0002F0E02017B6F260E7C6F500E7D6F390E33
:1043B0007E6F7F6B010E806F000174EC07F0550E6D
:1043C00002017B6F260E7C6F760E7D6F390E7E6F3D
:1043D0007F6B806B000174EC07F0640E0201846F48
:1043E0000001C1EC06F0C282C2B2FED7C4CF04F015
:1043F0001A0E006E002EFED700000450F0080CE2EA
:10440000C282C2B2FED7C4CF04F0320E0201846F62
:104410000001C1EC06F0F1D70450C30808E20450D3
:10442000E00805E302016FEF12F011D00001045023
:10443000730805E20450860802E30FD707D0045042
:10444000A50804E20450B80801E39BD7020102D09A
:104450000001D9D60001D7D602017C6B000131ECF6
:1044600005F002017B6B7C6B7F0E7D6F3F0E7E6FD4
:104470007F6B010E806F000174EC07F0010E0201EA
:104480007B6F7C6F7E0E7D6F3E0E7E6F7F6B010EAD
:10449000806F000174EC07F0160E02017B6F050EB1
:1044A0007C6F010E7E6FDE0E7D6F010E7F6F806F61
:1044B0000001D5EC07F00201786B560E776F13C040
:1044C0007BF2010E7C6F000101EC0AF0B00E0201DC
:1044D000886F0001F1EC09F0430E0201886F0001C2
:1044E000F1EC09F0200E0201886F0001F1EC09F0F7
:1044F000140E02017B6F120E7C6F7E6B560E7D6F69
:10450000020E7F6F010E806F0001D5EC07F0140ED4
:1045100002017B6F220E7C6F280E7D6F230E7E6F53
:10452000010E7F6F806F000174EC07F0080E02012E
:104530007B6F280E7C6F770E7D6F3A0E7E6F010EBB
:104540007F6F806F000174EC07F0220E02017B6F19
:104550002E0E7C6F010E7E6FA40E7D6F010E7F6F9D
:10456000806B0001D5EC07F013C014F0140E0201AB
:104570007B6F220E7C6F280E7D6F230E7E6F010EE7
:104580007F6F806F000174EC07F0340E02017B6FC7
:10459000220E7C6F490E7D6F230E7E6F010E7F6FA2
:1045A000806B000174EC07F0550E02017B6F220E48
:1045B0007C6F6B0E7D6F230E7E6F010E7F6F806BA5
:1045C000000174EC07F0090E02017B6F290E7C6F6D
:1045D000760E7D6F390E7E6F7F6B010E806F00014E
:1045E00074EC07F0C282C2B2FED7C4CF04F0320E20
:1045F0000201846F0001C1EC06F00450E6080CE2F1
:10460000C282C2B2FED7C4CF04F0320E0201846F60
:104610000001C1EC06F0F1D704500A083AE2045058
:10462000270837E31450630802E2630E146E142A5D
:10463000140E02017B6F120E7C6F280E7D6F200E10
:104640007E6F010E7F6F806B000174EC07F002013A
:10465000786B560E776F14C07BF2010E7C6F0001F1
:1046600001EC0AF0140E02017B6F120E7C6F7E6B60
:10467000560E7D6F020E7F6F010E806F0001D5EC2C
:1046800007F0640E0201846F0001C1EC06F06ED7E2
:104690008FD004503C0839E20450590836E31452D4
:1046A00002E1010E146E1406140E02017B6F120E4D
:1046B0007C6F280E7D6F200E7E6F010E7F6F806BEA
:1046C000000174EC07F00201786B560E776F14C08E
:1046D0007BF2010E7C6F000101EC0AF0140E020166
:1046E0007B6F120E7C6F7E6B560E7D6F020E7F6F9E
:1046F000010E806F0001D5EC07F0640E0201846F9B
:104700000001C1EC06F032D753D00450A5084FE2A7
:104710000450B8084CE3090E02017B6F290E7C6F30
:10472000760E7D6F390E7E6F7F6B806B000174ECAF
:1047300007F0140E02017B6F220E7C6F280E7D6F36
:10474000230E7E6F010E7F6F806B000174EC07F00B
:10475000C80E0201846F0001C1EC06F0C282C2B231
:10476000FED7C4CF04F0320E0201846F0001C1EC09
:1047700006F00450E6080CE2C282C2B2FED7C4CFF3
:1047800004F0320E0201846F0001C1EC06F0F1D793
:104790000450C30804E20450E00801E3B7D1045018
:1047A000730804E20450860801E3E0D601D0D0D7B4
:1047B000DDD602017C6B000131EC05F002017B6B60
:1047C0007C6B7F0E7D6F3F0E7E6F7F6B010E806F67
:1047D000000174EC07F0010E02017B6F7C6F7E0E0E
:1047E0007D6F3E0E7E6F7F6B010E806F000174EC5B
:1047F00007F0160E02017B6F050E7C6F010E7E6FB7
:10480000EA0E7D6F010E7F6F806F0001D5EC07F01F
:104810000201786B560E776F15C07BF2010E7C6F2C
:10482000000101EC0AF0B00E0201886F0001F1EC0A
:1048300009F0430E0201886F0001F1EC09F0200E2F
:104840000201886F0001F1EC09F0140E02017B6F88
:10485000120E7C6F7E6B560E7D6F020E7F6F010E07
:10486000806F0001D5EC07F0140E02017B6F220E61
:104870007C6F280E7D6F230E7E6F010E7F6F806F21
:10488000000174EC07F0080E02017B6F280E7C6FAC
:10489000770E7D6F3A0E7E6F010E7F6F806F000185
:1048A00074EC07F0220E02017B6F2E0E7C6F010E5E
:1048B0007E6FA40E7D6F010E7F6F806B0001D5ECC3
:1048C00007F015C016F0140E02017B6F220E7C6FEC
:1048D000280E7D6F230E7E6F010E7F6F806F0001AB
:1048E00074EC07F0340E02017B6F220E7C6F490ED0
:1048F0007D6F230E7E6F010E7F6F806B000174EC65
:1049000007F0550E02017B6F220E7C6F6B0E7D6FE0
:10491000230E7E6F010E7F6F806B000174EC07F039
:10492000090E02017B6F290E7C6F760E7D6F390EAA
:104930007E6F7F6B010E806F000174EC07F0C28206
:10494000C2B2FED7C4CF04F0320E0201846F000160
:10495000C1EC06F00450E6080CE2C282C2B2FED7F7
:10496000C4CF04F0320E0201846F0001C1EC06F0E6
:10497000F1D704500A083AE20450270837E31650EA
:10498000630802E2630E166E162A140E02017B6F94
:10499000120E7C6F280E7D6F200E7E6F010E7F6FD2
:1049A000806B000174EC07F00201786B560E776F94
:1049B00016C07BF2010E7C6F000101EC0AF0140EB0
:1049C00002017B6F120E7C6F7E6B560E7D6F020EA6
:1049D0007F6F010E806F0001D5EC07F0640E0201BD
:1049E000846F0001C1EC06F06ED78FD004503C08F4
:1049F00039E20450590836E3165202E1010E166EF0
:104A00001606140E02017B6F120E7C6F280E7D6F4E
:104A1000200E7E6F010E7F6F806B000174EC07F03B
:104A20000201786B560E776F16C07BF2010E7C6F19
:104A3000000101EC0AF0140E02017B6F120E7C6F74
:104A40007E6B560E7D6F020E7F6F010E806F000130
:104A5000D5EC07F0640E0201846F0001C1EC06F092
:104A600032D753D00450A5084FE20450B8084CE3A5
:104A7000090E02017B6F290E7C6F760E7D6F390E59
:104A80007E6F7F6B806B000174EC07F0140E0201E7
:104A90007B6F220E7C6F280E7D6F230E7E6F010EC2
:104AA0007F6F806B000174EC07F0C80E0201846F09
:104AB0000001C1EC06F0C282C2B2FED7C4CF04F03E
:104AC000320E0201846F0001C1EC06F00450E608CA
:104AD0000CE2C282C2B2FED7C4CF04F0320E020191
:104AE000846F0001C1EC06F0F1D70450C30804E262
:104AF0000450E00801E33FD00450730804E204507E
:104B0000860801E3E0D601D0D0D7DDD614C013F07B
:104B100002017C6B000131EC05F0EBEC0AF02D0E8C
:104B200002017B6F190E7C6F010E7E6FB90E7D6FD7
:104B3000010E7F6F806F0001D5EC07F02D0E020192
:104B40007B6F230E7C6F010E7E6FBF0E7D6F010E9B
:104B50007F6F806F0001D5EC07F00C0E02017B6FB8
:104B6000FA0E846F0001C1EC06F002017B2FF8D72A
:104B7000000115EF20F016C015F002017C6B00015A
:104B800031EC05F0EBEC0AF02D0E02017B6F190EF3
:104B90007C6F010E7E6FB90E7D6F010E7F6F806F8F
:104BA0000001D5EC07F02D0E02017B6F230E7C6F08
:104BB000010E7E6FBF0E7D6F010E7F6F806F000153
:104BC000D5EC07F00C0E02017B6FFA0E846F00012A
:104BD000C1EC06F002017B2FF8D7000115EF20F0A1
:104BE00002017C6B000131EC05F002017B6B7C6BF8
:104BF0007F0E7D6F3F0E7E6F7F6B010E806F000119
:104C000074EC07F0010E02017B6F7C6F7E0E7D6FEE
:104C10003E0E7E6F7F6B010E806F000174EC07F01B
:104C20000A0E02017B6F7C6F020E7E6F090E7D6F94
:104C3000010E7F6F806F0001D5EC07F0050E0201B9
:104C40007B6F190E7C6F7A0E7D6F270E7E6F010EC3
:104C50007F6F806F000174EC07F00A0E02017B6F1A
:104C60001E0E7C6F010E7E6FF60E7D6F010E7F6F44
:104C7000806B0001D5EC07F0050E02017B6F2A0E58
:104C80007C6F7A0E7D6F380E7E6F010E7F6F806FA6
:104C9000000174EC07F00A0E02017B6F2F0E7C6F8F
:104CA000020E7E6F030E7D6F010E7F6F806B000121
:104CB000D5EC07F0060E02017B6F1A0E7C6F790EA1
:104CC0007D6F260E7E6F7F6B806B000174EC07F0AA
:104CD000C282C2B2FED7C4CF04F0640E0201846F58
:104CE0000001C1EC06F00450F0080CE2C282C2B22E
:104CF000FED7C4CF04F0320E0201846F0001C1EC74
:104D000006F0F1D70450C30805E20450E00802E3BE
:104D10007BD079D004503C08D8B075D004505908E5
:104D2000D8A071D0060E02017B6F1A0E7C6F790E2F
:104D30007D6F260E7E6F7F6B010E806F000174EC1D
:104D400007F0060E02017B6F2B0E7C6F790E7D6FD4
:104D5000370E7E6F7F6B806B000174EC07F0640E82
:104D60000201846F0001C1EC06F0C282C2B2FED71C
:104D7000C4CF04F01A0E006E002EFED700000450BF
:104D8000F0080CE2C282C2B2FED7C4CF04F0320EE9
:104D90000201846F0001C1EC06F0F1D70450C30892
:104DA00005E20450E00802E39DEF34F004503C08B3
:104DB00004E20450590801E3B5D704500A0822E27E
:104DC000045027081FE3060E02017B6F1A0E7C6F4A
:104DD000790E7D6F260E7E6F7F6B806B000174EC09
:104DE00007F0060E02017B6F2B0E7C6F790E7D6F34
:104DF000370E7E6F7F6B010E806F000174EC07F041
:104E000067D701D08FD764D702017C6B000131ECEA
:104E100005F002017B6B7C6B7F0E7D6F3F0E7E6F1A
:104E20007F6B010E806F000174EC07F0010E020130
:104E30007B6F7C6F7E0E7D6F3E0E7E6F7F6B010EF3
:104E4000806F000174EC07F00A0E02017B6F7C6F2B
:104E5000010E7E6FF60E7D6F010E7F6F806F000179
:104E6000D5EC07F0050E02017B6F190E7C6F7A0EF0
:104E70007D6F270E7E6F010E7F6F806F000174ECD7
:104E800007F00A0E02017B6F1E0E7C6F020E7E6F12
:104E9000220E7D6F010E7F6F806B0001D5EC07F055
:104EA000050E02017B6F2A0E7C6F7A0E7D6F380E25
:104EB0007E6F010E7F6F806F000174EC07F00A0EA9
:104EC00002017B6F2F0E7C6F020E7E6F1A0E7D6FBC
:104ED000010E7F6F806B0001D5EC07F0060E02011A
:104EE0007B6F1A0E7C6F790E7D6F260E7E6F7F6B47
:104EF000806B000174EC07F0C282C2B2FED7C4CF4F
:104F000004F0640E0201846F0001C1EC06F004504D
:104F1000F0080CE2C282C2B2FED7C4CF04F0320E57
:104F20000201846F0001C1EC06F0F1D70450C30800
:104F300005E20450E00802E37BD079D004503C083D
:104F4000D8B075D004505908D8A071D0060E02010F
:104F50007B6F1A0E7C6F790E7D6F260E7E6F7F6BD6
:104F6000010E806F000174EC07F0060E02017B6FEA
:104F70002B0E7C6F790E7D6F370E7E6F7F6B806B93
:104F8000000174EC07F0640E0201846F0001C1ECB3
:104F900006F0C282C2B2FED7C4CF04F01A0E006E71
:104FA000002EFED700000450F0080CE2C282C2B20C
:104FB000FED7C4CF04F0320E0201846F0001C1ECB1
:104FC00006F0F1D70450C30805E20450E00802E3FC
:104FD000BDEF34F004503C0804E20450590801E3EA
:104FE000B5D704500A0822E2045027081FE3060E32
:104FF00002017B6F1A0E7C6F790E7D6F260E7E6F1D
:105000007F6B806B000174EC07F0060E02017B6F72
:105010002B0E7C6F790E7D6F370E7E6F7F6B010ECE
:10502000806F000174EC07F067D701D08FD764D789
:1050300002017C6B000131EC05F002017B6B7C6BA3
:105040007F0E7D6F3F0E7E6F7F6B010E806F0001C4
:1050500074EC07F0010E02017B6F7C6F7E0E7D6F9A
:105060003E0E7E6F7F6B010E806F000174EC07F0C7
:10507000030E02017B6F7C6F7A0E7D6F120E7E6FC6
:10508000010E7F6F806F000174EC07F00A0E0201C1
:105090007B6F060E7C6F020E7E6F2E0E7D6F010EF3
:1050A0007F6F806B0001D5EC07F0030E02017B6F70
:1050B000140E7C6F7A0E7D6F210E7E6F010E7F6F56
:1050C000806F000174EC07F00A0E02017B6F170E6F
:1050D0007C6F020E7E6F3F0E7D6F010E7F6F806BC7
:1050E0000001D5EC07F0030E02017B6F230E7C6FED
:1050F0007A0E7D6F2E0E7E6F010E7F6F806F000126
:1051000074EC07F00A0E02017B6F260E7C6F020E14
:105110007E6F4F0E7D6F010E7F6F806B0001D5ECAF
:1051200007F0030E02017B6F300E7C6F7A0E7D6FED
:105130003C0E7E6F010E7F6F806F000174EC07F0F4
:105140000A0E02017B6F320E7C6F020E7E6F670EBD
:105150007D6F010E7F6F806B0001D5EC07F0040EB0
:1051600002017B6F7C6F790E7D6F110E7E6F7F6BFE
:10517000806B000174EC07F0C282C2B2FED7C4CFCC
:1051800004F0640E0201846F0001C1EC06F00450CB
:10519000F0080CE2C282C2B2FED7C4CF04F0320ED5
:1051A0000201846F0001C1EC06F0F1D70450C3087E
:1051B00005E20450E00802E333D131D104503C0849
:1051C000D8B02DD104505908D8A029D1040E02011D
:1051D0007B6F7C6F790E7D6F110E7E6F7F6B010E82
:1051E000806F000174EC07F0040E02017B6F150E56
:1051F0007C6F790E7D6F200E7E6F7F6B806B000160
:1052000074EC07F0640E0201846F0001C1EC06F03B
:10521000C282C2B2FED7C4CF04F01A0E006E002EB6
:10522000FED700000450F0080CE2C282C2B2FED7E2
:10523000C4CF04F0320E0201846F0001C1EC06F00D
:10524000F1D70450C30804E20450E00801E392D30C
:1052500004500A0820E2045027081DE3040E02014E
:105260007B6F7C6F790E7D6F110E7E6F7F6B806B15
:10527000000174EC07F0040E02017B6F150E7C6FC9
:10528000790E7D6F200E7E6F7F6B010E806F0001A7
:1052900074EC07F071D704503C08D8B0C0D004506B
:1052A0005908D8A0BCD0040E02017B6F150E7C6F8C
:1052B000790E7D6F200E7E6F7F6B010E806F000177
:1052C00074EC07F0040E02017B6F240E7C6F790EE4
:1052D0007D6F2D0E7E6F7F6B806B000174EC07F08D
:1052E000640E0201846F0001C1EC06F0C282C2B2FA
:1052F000FED7C4CF04F01A0E006E002EFED70000B9
:105300000450F0080CE2C282C2B2FED7C4CF04F04F
:10531000320E0201846F0001C1EC06F0F1D7045097
:10532000C30805E20450E00802E361EF2FF00450E7
:105330000A0813E20450270810E3040E02017B6FF1
:10534000240E7C6F790E7D6F2D0E7E6F7F6B010EAC
:10535000806F000174EC07F039D704503C085FE21D
:10536000045059085CE3040E02017B6F310E7C6F20
:10537000790E7D6F3B0E7E6F7F6B806B000174EC4E
:1053800007F0040E02017B6F240E7C6F790E7D6F97
:105390002D0E7E6F7F6B010E806F000174EC07F0A5
:1053A000640E0201846F0001C1EC06F0C282C2B239
:1053B000FED7C4CF04F01A0E006E002EFED70000F8
:1053C0000450F0080CE2C282C2B2FED7C4CF04F08F
:1053D000320E0201846F0001C1EC06F0F1D70450D7
:1053E000C30805E20450E00802E32EEF31F0045058
:1053F0000A0814E20450270811E3040E02017B6F2F
:10540000310E7C6F790E7D6F3B0E7E6F7F6B010ED0
:10541000806F000174EC07F046D701D0A4D7ACD65A
:1054200002017C6B000131EC05F002017B6B7C6BAF
:105430007F0E7D6F3F0E7E6F7F6B010E806F0001D0
:1054400074EC07F0010E02017B6F7C6F7E0E7D6FA6
:105450003E0E7E6F7F6B010E806F000174EC07F0D3
:10546000160E02017B6F050E7C6F020E7E6F2E0EF4
:105470007D6F010E7F6F806F0001D5EC07F0020198
:10548000786B920E776F17C07BF2010E7C6F000174
:1054900001EC0AF01E0E02017B6F120E7C6F7E6B18
:1054A000920E7D6F020E7F6F010E806F0001D5ECB2
:1054B00007F0380E02017B6F120E7C6F010E7E6FBB
:1054C000B50E7D6F020E7F6F010E806F0001D5EC6F
:1054D00007F0080E02017B6F280E7C6F770E7D6F40
:1054E0003A0E7E6F010E7F6F806F000174EC07F043
:1054F000220E02017B6F2E0E7C6F010E7E6FA40EBA
:105500007D6F010E7F6F806B0001D5EC07F017C037
:1055100018F01E0E02017B6F220E7C6F320E7D6F23
:10552000230E7E6F010E7F6F806F000174EC07F019
:10553000370E02017B6F220E7C6F410E7D6F230EB2
:105540007E6F010E7F6F806F000174EC07F0340EE8
:1055500002017B6F220E7C6F490E7D6F230E7E6FE2
:10556000010E7F6F806B000174EC07F0550E020195
:105570007B6F220E7C6F6B0E7D6F230E7E6F010E94
:105580007F6F806B000174EC07F0090E02017B6FE6
:10559000290E7C6F760E7D6F390E7E6F7F6B010E4C
:1055A000806F000174EC07F0C282C2B2FED7C4CF94
:1055B00004F0320E0201846F0001C1EC06F00450C9
:1055C000E6080CE2C282C2B2FED7C4CF04F0320EAB
:1055D0000201846F0001C1EC06F0F1D704500A0803
:1055E0003AE20450270837E31850630802E2630EDA
:1055F000186E182A1E0E02017B6F120E7C6F320E7F
:105600007D6F200E7E6F010E7F6F806B000174EC4A
:1056100007F00201786B920E776F18C07BF2010ED3
:105620007C6F000101EC0AF01E0E02017B6F120E6E
:105630007C6F7E6B920E7D6F020E7F6F010E806F0E
:105640000001D5EC07F0640E0201846F0001C1EC8B
:1056500006F05FD78BD104503C0839E2045059085A
:1056600036E3185202E1010E186E18061E0E0201F2
:105670007B6F120E7C6F320E7D6F200E7E6F010EDF
:105680007F6F806B000174EC07F00201786B920E63
:10569000776F18C07BF2010E7C6F000101EC0AF0FD
:1056A0001E0E02017B6F120E7C6F7E6B920E7D6F61
:1056B000020E7F6F010E806F0001D5EC07F0640EC3
:1056C0000201846F0001C1EC06F023D74FD10450D2
:1056D000A508D8B04AD10450B808D8A046D11E0EAB
:1056E00002017B6F220E7C6F320E7D6F230E7E6F68
:1056F000010E7F6F806B000174EC07F0370E020122
:105700007B6F220E7C6F410E7D6F230E7E6F010E2C
:105710007F6F806F000174EC07F0C80E0201846F88
:105720000001C1EC06F0C282C2B2FED7C4CF04F0C1
:10573000320E0201846F0001C1EC06F00450E6084D
:105740000CE2C282C2B2FED7C4CF04F0320E020114
:10575000846F0001C1EC06F0F1D704500A0834E26E
:105760000450270831E3010E2C6E380E02017B6FC6
:10577000120E7C6F010E7E6FB70E7D6F020E7F6F73
:10578000806B0001D5EC07F0370E02017B6F220E13
:105790007C6F410E7D6F230E7E6F010E7F6F806FD9
:1057A000000174EC07F0380E02017B6F120E7C6F63
:1057B000010E7E6FB50E7D6F020E7F6F010E806F42
:1057C0000001D5EC07F08BD704503C0833E20450BD
:1057D000590830E32C6A380E02017B6F120E7C6F81
:1057E000010E7E6FB50E7D6F020E7F6F806B000124
:1057F000D5EC07F0370E02017B6F220E7C6F410E55
:105800007D6F230E7E6F010E7F6F806F000174EC41
:1058100007F0380E02017B6F120E7C6F010E7E6F57
:10582000B70E7D6F020E7F6F010E806F0001D5EC09
:1058300007F055D70450730822E2045086081FE38E
:105840001E0E02017B6F220E7C6F320E7D6F230EC7
:105850007E6F010E7F6F806F000174EC07F0370ED2
:1058600002017B6F220E7C6F410E7D6F230E7E6FD7
:10587000010E7F6F806B000174EC07F04AD6045074
:10588000A508D8B070D00450B808D8A06CD0370E96
:1058900002017B6F220E7C6F410E7D6F230E7E6FA7
:1058A000010E7F6F806B000174EC07F0090E02019E
:1058B0007B6F290E7C6F760E7D6F390E7E6F7F6B4E
:1058C000806B000174EC07F0C80E0201846F0001C8
:1058D000C1EC06F0C282C2B2FED7C4CF04F0320ED1
:1058E0000201846F0001C1EC06F00450E6080CE2EE
:1058F000C282C2B2FED7C4CF04F0320E0201846F5E
:105900000001C1EC06F0F1D70450C30804E20450D2
:10591000E00801E32BD00450730823E2045086080A
:1059200020E3370E02017B6F220E7C6F410E7D6FEC
:10593000230E7E6F010E7F6F806F000174EC07F005
:10594000090E02017B6F290E7C6F760E7D6F390E7A
:105950007E6F7F6B010E806F000174EC07F0BFD685
:1059600001D095D701D093D701D0D3D518C017F067
:1059700018EF28F002017C6B000131EC05F0020108
:105980007B6B7C6B7F0E7D6F3F0E7E6F7F6B010E9E
:10599000806F000174EC07F0010E02017B6F7C6FD9
:1059A0007E0E7D6F3E0E7E6F7F6B010E806F00015D
:1059B00074EC07F0160E02017B6F050E7C6F020E71
:1059C0007E6F3F0E7D6F010E7F6F806F0001D5EC03
:1059D00007F00201786B920E776F19C07BF2010E0F
:1059E0007C6F000101EC0AF01E0E02017B6F120EAB
:1059F0007C6F7E6B920E7D6F020E7F6F010E806F4B
:105A00000001D5EC07F0380E02017B6F120E7C6F9F
:105A1000010E7E6FB50E7D6F020E7F6F010E806FDF
:105A20000001D5EC07F0080E02017B6F280E7C6F99
:105A3000770E7D6F3A0E7E6F010E7F6F806F0001D3
:105A400074EC07F0220E02017B6F2E0E7C6F010EAC
:105A50007E6FA40E7D6F010E7F6F806B0001D5EC11
:105A600007F019C01AF01E0E02017B6F220E7C6F28
:105A7000320E7D6F230E7E6F010E7F6F806F0001EF
:105A800074EC07F0370E02017B6F220E7C6F410E23
:105A90007D6F230E7E6F010E7F6F806F000174ECAF
:105AA00007F0340E02017B6F220E7C6F490E7D6F72
:105AB000230E7E6F010E7F6F806B000174EC07F088
:105AC000550E02017B6F220E7C6F6B0E7D6F230ED5
:105AD0007E6F010E7F6F806B000174EC07F0090E82
